:020000040800F2
:10000000180400209D01000869030008610300082E
:1000100065030008E50100082B0900080000000046
:100020000000000000000000000000006105000862
:10003000E901000800000000F9030008610600085B
:10004000B7010008B7010008B7010008B7010008B0
:10005000B7010008B7010008EB010008B70100086C
:10006000030200081B02000833020008B701000861
:10007000B7010008B7010008B7010008B701000880
:10008000B7010008B7010008B7010008B701000870
:10009000B7010008B7010008B7010008B701000860
:1000A000B7010008B7010008B7010008B701000850
:1000B000B7010008B7010008B7010008B701000840
:1000C000B7010008B7010008B7010008B701000830
:1000D000B7010008B7010008CD060008B701000805
:1000E000B7010008B7010008B7010008B701000810
:1000F000B7010008B7010008B7010008B701000800
:10010000B7010008B7010008B7010008B7010008EF
:10011000B7010008B7010008B7010008B7010008DF
:10012000B7010008B7010008B7010008B7010008CF
:10013000B7010008B7010008B7010008B7010008BF
:10014000B7010008B7010008B7010008B7010008AF
:10015000B7010008B7010008B7010008B70100089F
:10016000B7010008B7010008B7010008B70100088F
:10017000B7010008B7010008B7010008B70100087F
:10018000B7010008B7010008DFF80CD000F018F83C
:1001900000480047D90C0008180400200648804792
:1001A00006480047FEE7FEE7FEE7FEE7FEE7FEE75C
:1001B000FEE7FEE7FEE7FEE76506000889010008A6
:1001C000064C074D06E0E06840F0010394E80700A4
:1001D00098471034AC42F6D3FFF7DAFF300F00082F
:1001E000500F000800BFFEE7704710B5012000F077
:1001F00033F8012801D100F011FE012000F026F8AB
:1002000010BD10B5042000F027F8012801D100F03E
:1002100035FE042000F01AF810BD10B5082000F0DB
:100220001BF8012801D100F011FE082000F00EF8A3
:1002300010BD10B5102000F00FF8012801D100F01A
:10024000D5FD102000F002F810BD00000149086043
:1002500070470000143C014001460020034A126828
:100260000A400AB1012000E000207047143C014020
:10027000F0B50A4600210023002400BF3DE001251F
:1002800005FA01F3156805EA03049C4234D10568B8
:100290004F000326BE40B543056015794E00B540BA
:1002A0000668354305601579012D02D01579022DB8
:1002B00016D185684F000326BE40B5438560557949
:1002C0004E00B540866835438560456801268E40FE
:1002D000B5434560456896798E40B6B23543456072
:1002E000C5684F000326BE40B543C560D5794E00B2
:1002F000B540C6683543C560491C1029BFD3F0BD61
:10030000F0B5002300244D07ED0E02FA05F3CE10E0
:1003100000F1200555F826504E07F70E0F26BE4077
:10032000B543CF1000F1200646F82750CE1000F15B
:10033000200555F8265045EA0304CE1000F12005AB
:1003400045F82640F0BD0246002013690B400BB172
:10035000012000E00020704741837047018370470F
:1003600000BFFEE700BFFEE77047000070B5002148
:1003700000230F22C4781CB3174C246804F4E064F3
:10038000C4F5E064C4F30721C1F10404E3B20A41F7
:1003900044789C40E1B28478144021430C07210E3C
:1003A0000E4C05786155047804F01F050124AC401B
:1003B00005786D11AD0005F1E025C5F8004109E0B3
:1003C000047804F01F050124AC40054D0678761131
:1003D00045F8264070BD00000CED00E000E400E0B0
:1003E00080E100E002490143024A116070470000C9
:1003F0000000FA050CED00E07047000029B1064A44
:1004000012680243044B1A6004E0034A12688243F4
:10041000014B1A60704700003038024029B1064A8B
:1004200012680243044B1A6004E0034A12688243D4
:10043000014B1A60704700004038024029B1064A5B
:1004400012680243044B1A6004E0034A12688243B4
:10045000014B1A607047000044380240F0B500219B
:1004600000220024022500260223324F3F6807F0B5
:100470000C0121B1042905D0082937D105E02E4F00
:10048000076036E02D4F076033E02A4F3F1F3F687B
:10049000C7F38056274F3F1F3F6807F03F036EB1F9
:1004A000264FB7FBF3F7DFF88CC0ACF1040CDCF897
:1004B00000C0CCF3881C07FB0CF40CE01E4FB7FB0C
:1004C000F3F7DFF870C0ACF1040CDCF800C0CCF33B
:1004D000881C07FB0CF4174F3F1F3F68C7F3014709
:1004E0007F1C7D00B4FBF5F7076002E0124F076048
:1004F00000BF00BF0F4F3F6807F0F0010909104F20
:100500007A5C0768D74047600A4F3F6807F4E051BC
:10051000890A0B4F7A5C4768D7408760054F3F6870
:1005200007F46041490B064F7A5C4768D740C760C3
:10053000F0BD0000083802400024F40000127A00E8
:100540000000002010B5044600BF2021204600F026
:100550001CF90028F9D0204600F0DEF9C0B210BD29
:10056000704770B504460D462946204600F0D9F97B
:1005700070BD00000CB50020019000903448006868
:1005800040F480303249086000BF3148006800F410
:10059000003000900198401C0190009818B9019813
:1005A000B0F5A04FF1D12A48006800F4003010B136
:1005B0000120009001E0002000900098012846D121
:1005C00023484030006840F08050214940310860A5
:1005D0002048006840F440401E4908601C4808302C
:1005E00000681B49083108600846006840F4004074
:1005F00008600846006840F4A05008601648091FCB
:100600000860081F006840F08070091F086000BF84
:100610000F48006800F000700028F9D040F2057023
:100620000E4908600A480830006820F003000849B5
:10063000083108600846006840F00200086000BF0A
:1006400003480830006800F00C000828F8D10CBD01
:10065000003802400070004008544007003C02404F
:100660007047000010B51548006840F47000134949
:1006700008601348006840F001001149086000203C
:100680000F49083108600E4800680E4908400C49BF
:1006900008600D48091D0860081F006820F48020CC
:1006A000091F0860002006490C310860FFF762FF4F
:1006B0004FF0006001498039086010BD88ED00E00E
:1006C00000380240FFFFF6FE1030002410B540F263
:1006D00025511E4800F066F8012831D11B48FFF76C
:1006E00031FF044621461AA000F022F9312C01D135
:1006F00000F094FB322C01D100F0C0FB332C01D16F
:1007000000F01CFB342C01D100F070FB352C01D122
:1007100000F09CFB362C03D101E000F01FFAFCE74F
:10072000372C01D100F0B8F9382C01D100F0AAF92A
:10073000392C01D100F0B6FA302C01D100F098FA32
:1007400040F22551014800F005F810BD004400407A
:1007500025630A0010B50022002340F66A14A14266
:1007600000D100BF0A1201249440A3B2DC430480EC
:1007700010BD21B1828942F40052828104E0828955
:100780004DF6FF731A408281704702460020B1F592
:10079000007F00D100BF13880B400BB1012000E0A7
:1007A0000020704770B50246002400230025002079
:1007B00040F66A16B14200D100BFC1F3421501F004
:1007C0001F03012606FA03F3012D02D19689334057
:1007D00006E0022D02D1168A334001E0968A3340AA
:1007E0000C12012606FA04F41688344013B10CB139
:1007F000012000E0002070BDF0B503460024002673
:100800000025002040F66A17B94200D100BF184603
:10081000C1F3421401F01F06012707FA06F5012C67
:1008200001D10C3004E0022C01D1103000E0143072
:100830001AB107682F43076002E00768AF430760FB
:10084000F0BD00002DE9FF4705460E460024A146F5
:1008500000BFA046B08900B100BF2C8A24F44054E8
:10086000F08804432C82AC8941F20C608443B08848
:1008700031890843718908430443AC81AC8A24F46C
:100880004074B0890443AC826846FFF7E7FD204816
:10089000854202D01F48854202D1DDF80C9001E06C
:1008A000DDF80890A88900F4004040B109EBC900C8
:1008B00000EB091031684900B0FBF1F707E009EBE4
:1008C000C90000EB091031688900B0FBF1F7642022
:1008D000B7FBF0F004012009642101FB1078A8891E
:1008E00000F4004040B1322000EBC800B0FBF1F052
:1008F00000F00700044308E0322000EB08106421F8
:10090000B0FBF1F000F00F0004432C81BDE8FF873D
:10091000001001400014014001468888C0F308001F
:100920007047C1F308028280704700BFFEE70000F5
:100930000FB4054B10B503A9044A029800F017F84C
:1009400010BC5DF814FB0000AD0B00081000002087
:1009500002E008C8121F08C1002AFAD17047704788
:10096000002001E001C1121F002AFBD170472DE9D0
:10097000F84F9946924688460546002706E0252806
:100980000AD051464A4690476D1C7F1C28780028A3
:10099000F5D13846BDE8F88F002315F8011F184639
:1009A0002E2915D115F8011F04232A290DD06FF027
:1009B0002F022978A1F13004092C09D800EB80001E
:1009C00002EB400008446D1CF3E758F8040B6D1C63
:1009D0002A78002ADDD0632A07D0732A0FD0104668
:1009E00051464A4690477F1C2AE018F8042B8DF8A0
:1009F000002000218DF801106E46012103E058F817
:100A0000046B4FF0FF315A074FF0000401D409E0A6
:100A1000641C84420BDA8C42FADB325D002AF7D187
:100A200005E0641C8C42FCDB305D0028F9D12744D2
:100A300004E016F8010B51464A469047641EF8D26E
:100A40006D1CA3E71CB501212020FFF7D7FC4FF454
:100A50008070009001208DF8040002208DF80500C0
:100A600000208DF806008DF8070069460448FFF75E
:100A7000FFFB4FF480710248FFF76EFC1CBD0000C5
:100A80000014024010B54FF480710248FFF764FC77
:100A900010BD00000014024010B54FF480710248F0
:100AA000FFF75CFC10BD00000014024000B587B0E9
:100AB00001210846FFF7A2FC02208DF804000C205B
:100AC000009002208DF8050000208DF8070069468F
:100AD0002048FFF7CDFB072202211E48FFF710FC3C
:100AE000072203211B48FFF70BFC01214804FFF7F5
:100AF00095FC4FF4165003900C20ADF81600002022
:100B0000ADF81400ADF81800ADF81000ADF8120003
:100B100003A91148FFF796FE012240F225510E4825
:100B2000FFF76AFE4FF4A060FFF75CFC26208DF80B
:100B3000080002208DF809008DF80A0001208DF8C8
:100B40000B0002A8FFF712FC01210348FFF711FE7A
:100B500007B000BD000002400044004070B54FF4F3
:100B600000411048FFF7EFFB044640210E48FFF715
:100B7000EAFB0546012C04D1012D02D100F07EF9DB
:100B80000FE0012C03D115B900F060F909E024B998
:100B9000012D02D100F02AF903E014B90DB900F0DB
:100BA0003DF970BD001802400008024070B50446CF
:100BB0000D46E1B20548FFF7D4FC00BF8021034891
:100BC000FFF7E3FD0028F9D0204670BD001001407A
:100BD0001CB501214420FFF711FC4FF400400090A8
:100BE00000208DF8040002208DF8050000208DF80B
:100BF00006008DF8070069460448FFF739FB4020DE
:100C0000009069460248FFF733FB1CBD0018024004
:100C1000000802401CB501213020FFF7EFFB4FF424
:100C2000C060009001208DF8040002208DF80500BE
:100C300000208DF806008DF8070069460A48FFF786
:100C400017FB4FF4C0610848FFF788FB4FF4C04022
:100C5000009069460548FFF70BFB4FF4C04103487D
:100C6000FFF77CFB1CBD0000001402400010024096
:100C700010B54FF400710948FFF770FB4FF4806125
:100C80000648FFF76BFB4FF400510548FFF766FB82
:100C90004FF480410248FFF761FB10BD0014024091
:100CA0000010024010B54FF400710948FFF754FBE3
:100CB0004FF480610648FFF74FFB4FF400510548A1
:100CC000FFF74AFB4FF480410248FFF745FB10BD98
:100CD0000014024000100240FFF79CFFFFF7B2FE35
:100CE00000F044F8FFF774FF00F0E0F8FFF7DEFED5
:100CF0001AE00EA10FA0FFF71BFE0F48FFF722FC22
:100D00000446312C02D1FFF7CDFF0DE0322C02D189
:100D1000FFF7AEFF08E0332C02D1FFF7BDFE03E082
:100D2000342C01D1FFF7AEFEE3E7000068656C6C80
:100D30006F00000025730A000010014010B58021EB
:100D40000748FFF70BFB40210648FFF705FB102182
:100D50000548FFF701FB80210248FFF7FFFA10BDAD
:100D600000040240000C0240000002401CB50121BA
:100D70000B20FFF743FB8020009001208DF804003A
:100D800002208DF8050000208DF806008DF8070080
:100D900069461348FFF76CFA4020009069461148F5
:100DA000FFF766FA1020009069460F48FFF760FAD7
:100DB0008020009069460B48FFF75AFA80210848C6
:100DC000FFF7CAFA40210748FFF7C6FA1021064884
:100DD000FFF7C2FA80210348FFF7BEFA1CBD0000EE
:100DE00000040240000C02400000024010B58021C7
:100DF0000748FFF7B3FA40210648FFF7ADFA102184
:100E00000548FFF7ABFA80210248FFF7A5FA10BDAD
:100E100000040240000C02400000024010B5802196
:100E20000748FFF799FA40210648FFF797FA102183
:100E30000548FFF793FA80210248FFF78DFA10BDAD
:100E400000040240000C02400000024010B51021D6
:100E50000748FFF781FA80210648FFF77FFA8021D3
:100E60000548FFF779FA40210248FFF777FA10BDED
:100E700000000240000C02400004024010B5802136
:100E80000748FFF769FA40210648FFF765FA102185
:100E90000548FFF761FA80210248FFF75DFA10BDAF
:100EA00000040240000C02400000024000B587B080
:100EB00001210846FFF7A2FA02208DF818004FF42E
:100EC000C060059002208DF8190000208DF81B00ED
:100ED00005A91548FFF7CCF9072209211248FFF7A9
:100EE0000FFA07220A211048FFF70AFA0121102001
:100EF000FFF7A4FA4FF4165001900C20ADF80E0045
:100F00000020ADF80C00ADF81000ADF80800ADF809
:100F10000A0001A90548FFF795FC01210348FFF7E6
:100F200028FC07B000BD0000000002400010014096
:100F3000500F0008000000201400000050090008B5
:100F4000640F000814000020040400006009000879
:100F5000000000000102030401020304060708095F
:040F6000000000008D
:040000050800018965
:00000001FF
